:020000040800F2
:10000000D83D002001020008090200080B02000888
:100010000D0200080F020008110200080000000095
:1000200000000000000000000000000013020008B3
:100030001502000800000000170200088D340008B7
:100040001B0200081B0200081B0200081B0200081C
:100050001B0200081B0200081B0200081B0200080C
:100060001B0200081B0200081B0200081B020008FC
:10007000612C00081B0200088D2C00081B020008E0
:100080001B020008B92C00081B0200081B02000814
:100090001B0200081B0200081B0200081B020008CC
:1000A0001B0200081B0200081B0200081B020008BC
:1000B0001B0200081B0200081B0200081B020008AC
:1000C0001B0200081B0200081B0200081B0200089C
:1000D0001B0200081B0200081B0200081B0200088C
:1000E0001B0200081B0200081B02000800F002F8B7
:1000F00000F068F80AA090E8000C82448344AAF15A
:100100000107DA4501D100F05DF8AFF2090EBAE857
:100110000F0013F0010F18BFFB1A43F0010318473B
:10012000105E0000305E0000103A24BF78C878C12D
:10013000FAD8520724BF30C830C144BF04680C60ED
:10014000704700000023002400250026103A28BF35
:1001500078C1FBD8520728BF30C148BF0B60704739
:100160006E2900F02181702900F03281662905F0A6
:100170000885652905F00585672905F0028561294F
:1001800005F00185642900F0D380732901F0038014
:10019000002070471FB59DE8030001F0EFFA01F061
:1001A000CDFA04000020002105F01AF9401C60601F
:1001B0000020002105F0FEF8E06000F08BFB1FBD81
:1001C00010B510BD01F016FE1146FFF7E3FF04F075
:1001D0004DFC02F07FF803B4FFF7F2FF03BC01F01F
:1001E000FFFD000000B500BF00BF00BF00BF00BDA5
:1001F00000B50248D0F800D04068004700F0FF1F6B
:100200000948804709480047FEE7FEE7FEE7FEE7AA
:10021000FEE7FEE7FEE7FEE7FEE7FEE704480549E6
:10022000054A064B7047000019350008ED0000082C
:10023000D8370020D83D0020D8390020D8390020F8
:1002400070B5A0FB0140B4F1805170F1000024BFF3
:10025000002070BD204600F04FFB05001CBF21466A
:1002600000F0ECFA284670BD0FB41CB5074B06AA87
:100270007B4469460090059800F063FF00206946C2
:1002800000F072FF1CBC5DF814FB0000F50E0000CE
:1002900070B5044685690068C10601D5302600E0C6
:1002A0002026C00707D070BDD4E901213046904711
:1002B000206A401C20626D1EF6D570BD70B50446E4
:1002C00085690078C00707D170BDD4E901212020DD
:1002D0009047206A401C20626D1EF6D570BD70B537
:1002E0000C460546012A05D02878800600D5EA6923
:1002F000002302E0012305E05B1C934202D2E05C94
:100300000028F9D1A869E618C01AA861286A18441B
:1003100028622846FFF7BCFF04E0D5E9012114F864
:10032000010B9047B442F8D32846FFF7C7FF70BDD2
:100330002DE9F0410646002410687529314616A5BE
:1003400010D0AFF30080002802DA404213A507E086
:1003500031688A0701D512A502E0490704D511A525
:10036000012401E0AFF3008000210A2206F12407F6
:1003700009E0B0FBF2FCB0FBF2F302FB1C003030F2
:1003800078541846491C0028F3D123462A463046A3
:10039000BDE8F04100F0ECBA000000002D000000C4
:1003A0002B0000002000000011680268006A53055D
:1003B00001D508700AE0D30501D5088006E01306D0
:1003C00003D5C217C1E9000200E0086001207047B0
:1003D000F0B4136802680824C4610C4642F020029D
:1003E0000260110502D50E4A7A4402E00C4A7A44B2
:1003F0000E32002100F1240505E003F00F061B0971
:10040000965D6E54491C002BF7D105782D0703D556
:10041000702C01D101231032F0BC00F0A9BA000009
:10042000E95800002DE9F05F894604464FF0000AC4
:10043000DFF874B1FB44C0F820A02046E16888478B
:10044000002874D0252806D0D4E901219047206ADD
:10045000401C2062F1E700265F462046E16888479D
:100460002028054607DB312D05D2781910F8200C1D
:1004700008B10643F1E7B00701D526F00406C4F839
:100480001CA00027C4F818A02A2D09D0284603F084
:1004900072FE38B304EB8708303DC8F8185019E0F5
:1004A00059F8041B204604EB87029161E1688847F4
:1004B000012F054618D1E069002820DA26F0200631
:1004C0001DE0D8F8180000EB800005EB4000303844
:1004D000C8F818002046E1688847054603F04BFE3F
:1004E0000028EED1012F0AD02E2D08D12046E16838
:1004F00088477F1C0546022F46F02006C4DBA06912
:10050000002803DA404246F00106A061F00701D05E
:1005100026F010066C2D0BD0682D09D04C2D39D04B
:100520006A2D35D0742D35D07A2D33D016E038E0D1
:10053000E1682F4620468847B842054609D16C2F0E
:1005400026D04FF48060E168064320468847054680
:1005500004E06C2F1AD04FF4807006430DB3A5F160
:100560004100192802D8203546F400664A4629463B
:10057000204626604E46FFF7F3FD80B101280BD0E0
:10058000F61D26F0070000F1080956E74020E4E7D1
:100590008020D8E70020D6E706F104094DE7284679
:1005A00052E7206ABDE8F09FC55800000FB400B5BF
:1005B0008DB010A9099000910B904FF0FF300A9078
:1005C00000200C90064878440690064878446A4615
:1005D00007900F9909A801F03BF80DB05DF814FBE6
:1005E000A7100000BF1000002DE9FF5F4FF00008CA
:1005F0009946144646469169D2E901A7DDF838B01C
:1006000001988847054659EA0B0005D009E0A16921
:100610000198761C88470546216A284688470028A5
:10062000F5D1681C03D05FEACA7005D015E04FF021
:10063000FF3004B0BDE8F09F2068011D2160D0F8B4
:1006400000800AE05FEACA7001D108F8015BA16985
:10065000761C01987F1E88470546002F1ADD681C0E
:1006600018D0B9F1000F0DD0E81705EBD06042119A
:1006700020F01F0059F822102A1A01209040014250
:10068000E0D107E0BBF1000FDCD12846216A8847A2
:100690000028D7D0E16901988847BBF1000F07D146
:1006A000002E05DD5FEACA7002D1002188F8001033
:1006B000A068B84203DDBBF1000F03D017B16FF0A3
:1006C0000100B6E73046B4E72DE9F04798461446F6
:1006D0000F468246DDF8209094B1012C0BD04A469B
:1006E0005046650805FB08763146904700280CD037
:1006F0000DDA2C46F0E74A4639465046904710B18D
:100700000020BDE8F0873846FBE73046F9E7641B78
:10071000641E06EB0807DFE72DE9F0410546904629
:100720000E460020044600E0641C44450BD2285DC0
:1007300000F011F90746305D00F00DF9381A02D1CA
:10074000295D0029F0D1BDE8F0812DE9F0410E4688
:100750000546002400E0641C285D00F0FCF8074614
:10076000305D00F0F8F8381A02D1295D0029F2D185
:10077000BDE8F08110B5431C02E010F8011B71B117
:100780008107FAD14FF0013202C88C1A8C4314EA67
:10079000C211F9D0C01A0A0603D0C01E10BDC01A7B
:1007A00010BD0A0401D0801E10BD0902FCD0401EFD
:1007B00010BD032A40F2308010F0030C00F01580C9
:1007C00011F8013BBCF1020F624498BF11F801CB54
:1007D00000F8013B38BF11F8013BA2F1040298BFB9
:1007E00000F801CB38BF00F8013B11F0030300F023
:1007F0006687083AC0F0088051F8043B083A51F87F
:1008000004CBA0E80810F5E7121D5CBF51F8043BCB
:1008100040F8043BAFF30080D20724BF11F8013B3E
:1008200011F801CB48BF11F8012B24BF00F8013BA0
:1008300000F801CB48BF00F8012B70474FF00002D1
:100840000429C0F0128010F0030C00F01B80CCF1E2
:10085000040CBCF1020F18BF00F8012BA8BF20F850
:10086000022BA1EB0C0100F00DB85FEAC17C24BFA4
:1008700000F8012B00F8012B48BF00F8012B70474E
:100880004FF0000200B5134694469646203922BF29
:10089000A0E80C50A0E80C50B1F12001BFF4F7AF74
:1008A000090728BFA0E80C5048BF0CC05DF804EB56
:1008B000890028BF40F8042B08BF704748BF20F8C4
:1008C000022B11F0804F18BF00F8012B70477047C2
:1008D0007047704770B5064C7C44064D7D4403E07C
:1008E000206820448047241DAC42F9D170BD00002F
:1008F000A8570000AC57000070B5064600F01AFF7C
:10090000056806F10B0020F00704B4429CBF0020EC
:1009100070BD2B466A68BAB11068A04210D304F1CA
:10092000080188423CBF5068586007D351681019CD
:1009300041601168091B016058601460101D70BD92
:1009400013465268002AE7D12146284600F002FFEC
:100950000028DED170BD10B5044600F0E3FE00684B
:10096000005DC00602D504F1200010BD204610BD78
:100970002DE9F0470D4699469246044600F12408B9
:100980000168880604D5E06921F01001216000E0CB
:100990000120A84201DD471B00E00027A1697A1968
:1009A00002EB0900081AA0612078C00602D4204694
:1009B000FFF76EFC002608E0D4E901211AF80600D2
:1009C0009047206A401C761C20624E45F4DB20785C
:1009D000C0060AD52046FFF75BFC06E0D4E90121FA
:1009E00030209047206A401C2062381EA7F1010782
:1009F000F4DC07E0D4E9012118F805009047206AEB
:100A0000401C2062281EA5F10105F3DC2046FFF7FB
:100A100055FC2078000602D50220BDE8F0870120B1
:100A2000FBE770472DE9FF4F0C461E464FF0FF379E
:100A30008BB0D2E90001DDF860800A908A46C1F3EC
:100A40000A5505B93D46002108464FF00000BAF1AD
:100A5000000F00F4400005DA00EB80004FF4400185
:100A600001EA50004FEA9059B9F1010F00DDB94693
:100A70000A9850EA4A000ED044F61050A5F2FF350D
:100A800045432F14B8F1000F1ED07542291E1EDDFC
:100A9000C9F100021CE0B8F1010F4FF0000001D0D5
:100AA000302103E0F24305E02154401CB042FBDB5F
:100AB00030460022002121540B99C1F80880C1E979
:100AC00000200FB0BDE8F08FBD1B6D1CDEE74A466D
:100AD00000DA694206A801F0F7F806AB93E80700D0
:100AE00003AB83E8070050460A9901F0ABFC8DE8A0
:100AF0000700A0F500501F3800900398002D09DD75
:100B000042F21F014A46084403A90390684601F0D7
:100B100034FF08E0A0F500504A461F3803A90390AF
:100B2000684601F052FF8DE807000004000C03D076
:100B30004FF0FF30410800E01046B8F1000F03D03D
:100B40000022009215461EE0751E05D400F073FECB
:100B5000303262556D1EF9D5B3460122084302D0EA
:100B600000227F1C04E02078302801D100227F1E63
:100B7000002A099786D01DE0112D07DA00F05BFEF0
:100B8000303262556D1C50EA0102F5D1084302D0A3
:100B90000098C8B10EE00021681E05E0235C625C8D
:100BA00063542254401E491C8142F7DBAB46A81B0C
:100BB000401E0990002004F80B000B98099AC0F819
:100BC0000880C0E9002B7CE711264FF0000859E7A8
:100BD0002DE9F04F88460446D21D22F0070191B05E
:100BE000D1E90001CDE90A0103F01BFA02460B9896
:100BF000C00F01D02D2007E02068810701D52B20F0
:100C000002E0202101EAC000032A099001D0072A4E
:100C100005DB03464146204600F05CFE0BE12078F0
:100C2000800601D5E06900E00620B8F1650F814635
:100C300006D0B8F1660F18D0B8F1670F70D131E067
:100C40000020B9F1110F009001DB112301E009F13F
:100C500001030AAA01A90CA8FFF7E4FEDDE90C7064
:100C6000002609F10105834647E001204B4600902C
:100C70004FF000470AAA01A90CA8FFF7D3FEDDE94F
:100C80000DB00C995D46002610B909F101000D1850
:100C9000B9EB050003D4C0F1FF3609F10105A5EB5E
:100CA00009002BE0B9F1010F01DA4FF00109002032
:100CB000B9F1110F0090484601DD112300E0034611
:100CC0000AAA01A90CA8FFF7ADFEDDE90C704D469C
:100CD00000268346207800070AD4AB4500DA5D463B
:100CE00001A8012D04DD411911F8011C302907D09C
:100CF0004F4502DA17F1040F04DA012082460FE0B3
:100D00006D1EEEE7002F02DCED1B3E4403E0781C75
:100D1000A84200DD7D1CB81B00F1010A4FF000471E
:100D20002078000703D4AA4501DB4FF0FF3A0021E9
:100D3000B7F1004F0DF143088DF8431024D0022085
:100D40002B23002F01DA7F422D230A21021EA0F15E
:100D5000010000DC5FB197FBF1FC97FBF1F201FBB6
:100D60001C7C17460CF1300C08F801CDEEE7A8F119
:100D7000010003702188090501D5452100E06521A6
:100D8000A0F1010800F8011C09980FA9A1EB0807C0
:100D9000FF1D00B10120411901EBEA70A16938443F
:100DA000081A401EA0612078C00602D42046FFF732
:100DB0006FFA099828B1D4E901219047206A401CB4
:100DC00020622078C00622D52046FFF761FA1EE097
:100DD000002E04DBB34502DD01A8805D00E0302079
:100DE000D4E901219047206A401C2062761CAAF1B8
:100DF00001005FEA000A0AD100F0A0FCC0680168A7
:100E0000405CD4E901219047206A401C2062281EE2
:100E1000A5F10105DCDC07E0D4E9012118F8010B9C
:100E20009047206A401C2062381EA7F10107F3DCBE
:100E30002046FFF743FA032011B043E62DE9F04FB7
:100E400004460D46D21D22F0070089B0D0E9009279
:100E500048461746394603F0E4F80246F80F01D039
:100E60002D2307E02068810701D52B2302E02021F4
:100E700001EAC0038DF820300BB1012000E0002012
:100E8000032A824601D0072A04DB2946204600F0C7
:100E900021FD3DE12078800601D40D2500E0E569C3
:100EA000C7F30A560D2D49DA00214FEA175B0846B1
:100EB0004FF00000002F00F4400007DA00EB800044
:100EC0004FF4400100EBD07001EA60008115012968
:100ED00001DD4FF0FF3100224FEA850CBCF1180F05
:100EE00006D31346ACF118004FF08052C24003E025
:100EF0004FF4801323FA0CF30CF10C0CBCF1200F0F
:100F000004D3ACF1200C09FA0CF001E007FA0CF064
:100F100000294FF0004801DD18B90FE00ED140451F
:100F20000CD319EB02095F4121B9404502D19F431F
:100F300029EA0209BBEB175F00D0761C2088000568
:100F400002D57B48784402E079487844193808AAE9
:100F5000302302F80A30037C0AF10101002E0AF165
:100F6000020A53546A4602DC4FF0300101E04FF0B0
:100F700031014FF001088DF8001002D0A6F2FF36C3
:100F800003E059EA470100D06A4E002D02DC2178C7
:100F9000090704D54FF002082E218DF80110C44630
:100FA00000210BE0C7F303433F01C35C491C6D1EE6
:100FB00002F80830052908F1010801DA002DF1DCFA
:100FC00000210CE000EB1973491C1B786D1E0829E9
:100FD00002F808304FEA091908F1010801DA002D7A
:100FE000F0DC2178890602D514E0A8F10108E0457B
:100FF00005DD02EB080111F8011C3029F5D0B8F12C
:10100000000F07DD02EB080111F8011C2E2901D1A8
:10101000A8F10108002D05DD3E2102F808106D1E23
:1010200008F10108407C002E02F8080008F10108D0
:1010300004DA2D20764202F8080002E02B2002F8A4
:1010400008000A214FF47A70864208F101080BDB90
:1010500096FBF0F3303302F8083096FBF0F308F11A
:10106000010800FB136601E0642E0CDB642096FB94
:10107000F0F3303302F8083096FBF0F308F1010882
:1010800000FB136601E00A2E06DB96FBF1F0303020
:1010900002F8080008F1010896FBF1F001FB10606E
:1010A000303002F80800A16908F1010808EB0502D8
:1010B00002EB0A00081AA0612078C00602D420467C
:1010C000FFF7E6F8216A08AE01EB0A00206204E0AF
:1010D000D4E9012116F8010B9047BAF1010AF7D2C1
:1010E0002078C00602D52046FFF7D2F86E4609E008
:1010F00016F8010B3E280FD0D4E901219047206A51
:10110000401C2062B8F10108F2D22046FFF7D6F861
:1011100009B00320BDE8F08F206A2844206203E074
:10112000D4E90121302090476D1EEBD3F8E7000091
:10113000D94D000002FCFFFF01694A1C02610878DA
:10114000704700B58FB0CDE9013100210591054907
:101150007944CDE9031011466846FFF763F90FB0F3
:1011600000BD0000E5FFFFFF0A6802F8010B0A60FE
:10117000704710B5436913B1AFF3008001E0FFF78A
:10118000AEF8012010BD127800F124010A7000228F
:101190004A700122EDE711684FF0FF32E9E70000E5
:1011A0002DE9FF4F064689B00878FF2806D0491C74
:1011B0002D2805D000244FF0000908E000200CE0A5
:1011C0000124F8E709EB8903491C00EB430908787F
:1011D000FF28F7D114B1C9F100008146107800252D
:1011E0002C46AA4629462D2801D02B2804D1521C72
:1011F0002D2813D0002082468B461078FF280FD070
:101200004FF0000C0A21521CA5FB017804FB018160
:1012100005FB0C11C5194BEB0104EEE70120EAE7D1
:10122000002108464FF00000BAF1000F02D000EB99
:1012300080004008C0F38158B8F1010F01DD4FF084
:10124000FF380C9809EB000755EA040009D04FF06D
:10125000020917F5FA7F0BDA4FEACA70C6E900B047
:1012600012E04FEACA70C6E900B00DB0BDE8F08FD9
:10127000B7F5FA7F0DDDF0487844D0E90010C6E9F3
:10128000001040EACA70706000F05CFAC0F800908C
:10129000EBE7391E02DAC8F1000200E0424600DA4C
:1012A000794206A800F010FD06AB93E8070003ABF7
:1012B00083E8070044F23E005BEA040100905846D0
:1012C00004D144F21E012C465D460091210C090414
:1012D000014306D10099240444EA15442D04103931
:1012E000009104F07F41014306D10099240244EAB1
:1012F00015642D020839009104F07041014306D1B4
:101300000099240144EA15742D01091F009104F08D
:101310004041014306D10099A40044EA9574AD0010
:10132000891E009104F00041084304D100986D1912
:101330006441401E009042466846002FCDE90145B9
:1013400003A902DD01F055FB01E001F02AFBBAF12F
:10135000000F04460D4601D084F0004440F2FF77B0
:1013600024F00040284303D0C4F30A50B84212D1FD
:1013700000F0E8F9C0F80090C4F30A50B8420AD16E
:10138000AE487844D0E90010C6E9001004F00041EE
:101390000843706069E7C6E9005466E72DE9FF4F2E
:1013A0001F464FF0000A4FF0FF38454691B0D7E98D
:1013B0000146CDF83CA000F0C1F9C0680168405C6E
:1013C0001090B96912986D1C8847396A8146884720
:1013D0000028F6D1B9F1FF3F0AD0002E24F4D064E2
:1013E00011DDB9F12B0F08D0B9F12D0F0BD102E0AF
:1013F000404615B03AE744F48064B96912986D1C10
:101400008847761E8146600504A901D52D2000E09D
:101410002B20002E01F1010B0DF130088DF810008A
:101420003FDDB9F1690F08D0B9F1490F05D0B9F125
:101430006E0F02D0B9F14E0F1CD13B4601A80095AA
:1014400080E85002DDE912126FF0020004F001FCA6
:10145000C11CCED10EE0B96912986D1C8847814637
:101460001398761E44F4007405600F98401C002EFB
:101470000F9016DDB9F1300FEDD0B9F1780F02D031
:10148000B9F1580F0DD10F9801280AD13B46CDE98B
:101490000054DDE91212001F029604F0D8FBC11CB3
:1014A000A7D1109989453ED144F0800406E01399F4
:1014B000681CAAF1010A44F400740860B9696D1C43
:1014C0001298761E884730288146F0D02BE010997C
:1014D000894505D1200603D4761E44F0800418E027
:1014E000484602F048FE08B3761E0DF123018B45F5
:1014F00044F4007408D2A9F130000BF8010B200667
:1015000007D5AAF1010003E0200602D40AF1010088
:101510008246A00502D51399681C0860B969129823
:101520006D1C88478146002ED1DC53E0002E51DD32
:10153000B9F1650F02D0B9F1450F4BD1A00549D5DE
:10154000B9696D1C1298761E24F440748847002EE9
:1015500081460CDD2B2804D0B9F12D0F07D144F4BE
:101560008074B96912986D1C8847761E8146E00523
:1015700001D52D2100E02B2108F8011BCDF80080BA
:1015800021E0761E0DF13901884544F400740CD237
:10159000A9F1300010F0FF0088F8000002D1009996
:1015A000884509D908F1010806E0E00501D524487D
:1015B00001E042F20F708246B96912986D1C8847AB
:1015C000814613980560002E04DD484602F0D3FDE5
:1015D0000028D6D1F96912988847FF2053468BF826
:1015E000000088F8000000200A900B9004AA0CA9C3
:1015F0000AA8FFF7D5FDA00502D46FF00100F8E6B8
:1016000014F0240F0AD0E00714D13868DDE90A127B
:10161000031D3B600068C0E900120BE00AA96846A0
:1016200002F026FDE00705D13868009A011D3960F7
:10163000006802602846DCE6D44C0000CA4B00007B
:10164000F1D8FFFF02681144137801601846704713
:10165000D1600549794451610449794411620021FE
:101660001161114600F076B9EDFFFFFF6302000043
:10167000426842B1016811F8013B23B1521EC0E932
:101680000012184670470121C160881E70474268E9
:101690005AB1C368016843B983688B4205D0491EBB
:1016A000521CC0E90012002070474FF0FF30704715
:1016B00010B500F07DFBBDE8104000F073BB10B525
:1016C000203AC0F00B80B1E81850203AA0E818503A
:1016D000B1E81850A0E81850BFF4F5AF5FEA027CFB
:1016E00024BFB1E81850A0E8185044BF18C918C06A
:1016F000BDE810405FEA827C24BF51F8043B40F80B
:10170000043B08BF7047D20728BF31F8023B48BFEF
:1017100011F8012B28BF20F8023B48BF00F8012B2D
:101720007047000010B500F009F8001D10BD00BFA3
:10173000B13C0000004870478037002000487047E7
:10174000983700200048704778370020704770476E
:101750007047704738B504460A4600206946AFF323
:101760000080002808BF38BD02460099204600F0DE
:1017700066FB012038BD012000F0CBBDF8B5AFF30A
:101780000080054600200C46102000BF0646A81920
:10179000A0420DD9324669460020AFF30080070011
:1017A00008BF00F0B6FD0098A04218BF0546C41956
:1017B000FFF7C0FF05600746F01D20F0070046193F
:1017C000284600F00AF8B44208BFF8BDA21B314613
:1017D0003868BDE8F84000F032BB00210160C0E984
:1017E000011070471020704770B50446051FFFF7C1
:1017F000A1FF0068002C14BF446870BD002C18BF06
:10180000AC423CBF20466468F8D301680A18AA427B
:1018100018BF456003D12A68054611440160286855
:101820004119A1421CBF6C6070BD6168696021688C
:101830000844286070BD30B5B0F10A024FEA900E3E
:1018400071F100034EEA817EB0EB0E0061EB910175
:101850004FEA101E4EEA017E10EB0E0041EB111113
:101860004FEA102E4EEA016E10EB0E0041EB1121F3
:101870004FEA104E4EEA014E10EB0E0041EB1141C3
:10188000401841F100014FEAD00040EA41704FEAB0
:10189000D10110EB80054FEA810444EA907444EBD7
:1018A00001046D1944EB0404521BA3414FF00003E3
:1018B00048BF0A3200D530BD401C41F1000130BDA7
:1018C00010B50446FFF72EFF0068005D00F0010030
:1018D00010BD00002DE9F0411F46044603260168B3
:1018E000072A01F4006004DB08B116A505E016A57F
:1018F00003E008B115A500E015A521F01000206057
:10190000A069C01EA0610FB1401EA0612046FEF775
:10191000BFFC4FB1D4E9012138469047206A401CF2
:101920002062C01C206206E0206AFAE7D4E90121A7
:1019300015F8010B9047761EF8D22046FEF7BEFC44
:10194000BDE8F0814E414E006E616E00494E46008A
:10195000696E66002DE9F34F4FF0000A0C465646BB
:101960008DB001200C9001F10C000B9062690B9876
:101970000121904705002DD0252D2CD0216A8847C4
:10198000C0B162690B9801219047216A88470028FD
:10199000F7D16269411E0B98904700E0761CA1695F
:1019A0000D988847216A88470028F7D1E1690D988A
:1019B0008847DBE7A1690D988847A842074601D10F
:1019C000761CD3E7E1690D9888477F1C02D1BAF1F4
:1019D000000F6FD06BE162690B9800273D463946D6
:1019E00090472A2804D162690B980121904701256C
:1019F000DFF8D08262690B9801219047A0F1300195
:101A00000A290AD24745E5DC07EB870100EB4107CD
:101A1000303FDFD445F01005ECE7E90601D46FF064
:101A200000476C280AD04C2814D0682815D06A28A2
:101A30000DD074281CD07A281AD01DE062690B984A
:101A4000012190476C2802D045F0040514E045F0D0
:101A500002050DE045F020050AE062690B980121BE
:101A60009047682802D045F0080505E045F4006578
:101A700062690B9801219047C4E9015765283DD060
:101A800019DC58287AD00CDC452837D004DC25280E
:101A900026D041289ED131E046282FD0472899D121
:101AA0002CE05B2877D0612828D063287CD064287C
:101AB00023D15AE0F6E06F2848D008DC66281DD014
:101AC00067281BD0692821D06E2816D127E07028FE
:101AD00045D0732868D0752847D078280DD14DE0BF
:101AE000A1690D988847252805463FF469AFE1694B
:101AF0000D9888476D1C3FF46AAFD8E00D992346D6
:101B00006A466FF0010004F0A0F8C5E045F040001F
:101B100023464FF000026060A80736D43EE0E80795
:101B20007FF447AF2068011D21600068290501D5B9
:101B300006701BE7290701D5068017E7A90703D51B
:101B4000F117C0E9006111E706600FE745F04000BA
:101B500023464FF008026060A80716D41EE040F646
:101B60000E0125EA0100606016E045F040002346C2
:101B70004FF00A026060A80707D40FE045F040006C
:101B80006060A80708D5234610220D996FF0010068
:101B9000AFF3008080E007E0102223460D996FF03C
:101BA0000100AFF3008077E04FF0000963284F4653
:101BB000C8464B46CB4602D05B2806D038E0E80644
:101BC00001D40120A060012732E06269D4F80CB092
:101BD0000B98012190475E2807D14FF00109494633
:101BE0006269D4F80CB00B989047216939B900218B
:101BF0000A4603AB43F82120491C0829FADBD8B375
:101C0000216949B308F1010862690B9801219047E5
:101C10005D28F4D1B9F1000F09D0002003A951F8D3
:101C20002020D24341F82020401C0828F7DB03ABDA
:101C30002069002820794FEA40701ED05B4622467A
:101C4000CDF80080CDE901970D9900286FF00100D3
:101C500020DAAFF300801FE0C11703AA00EBD161C7
:101C60004B1121F01F0102EB8302411A136801207E
:101C7000884003431360C7E719E00D992246002806
:101C80006FF00100009702DAAFF3008004E0FEF786
:101C9000ABFC01E0AFF3008000280ADA401C06D15B
:101CA0000C9820B14FF0FF300FB0BDE8F08F5046D8
:101CB000FAE7E90701D10AF1010A064400200C9075
:101CC00054E60000CCCCCC0C2DE9F04781461646FA
:101CD0008AB0334878440DC88DE80D003048784408
:101CE000801C03AC0DC884E80D0041F69B3008440D
:101CF000372190FBF1F290FBF1F5A5F1800501FB96
:101D000012041B3C02D56442012000E00020DFF8F1
:101D100090A080460027FA44AAF1BE0A0DE0E00731
:101D200009D03246684607EB47010AEB810100F013
:101D30004CFE8DE8070064107F1C002CEFD1184F7B
:101D40007F44AC3F18E0E80714D007EB04100DF116
:101D5000180A90E80E008AE80E00C068F04201D12F
:101D600098190890324606A903A800F02EFE03AB8E
:101D700083E807006D10641C002DE4D132466946EB
:101D8000B8F1000F03A802D000F0F7FD01E000F069
:101D90001CFEC9E90001C9F808200AB0BDE8F087B7
:101DA000D8400000002801D000F01AB870470000A9
:101DB00010B5002102A000F093FA012010BD000030
:101DC0005349475056464E3A205075726520766901
:101DD000727475616C20666E2063616C6C65640062
:101DE00001491820ABBEFEE72600020000487047FC
:101DF000783700207546FFF7F9FFAE4605006946C3
:101E0000534620F00700854618B020B5FEF706FAC5
:101E1000BDE820404FF000064FF000074FF00008EB
:101E20004FF0000B21F00701AC46ACE8C009ACE86C
:101E3000C009ACE8C009ACE8C0098D46704703464C
:101E400040688C46002818BF88423CBF0346406863
:101E5000F8D318681844884207D00CF1030020F02A
:101E60000700001D411A521A0146081D0A60FFF7BB
:101E7000BBBC10B5FFF766FC006810BD10B504468A
:101E8000FFF760FC046010BD2DE9FF4F1F464FF0C7
:101E90003C0987B04FF00042DDE9141001F1010860
:101EA000DDF858A002EA40500390002004908346D9
:101EB000054604460590B969461E08988847AAF168
:101EC000010A0290BAF1000F37DD02982E2815D0D2
:101ED000102100F080FA00282ADB4FF0010B049952
:101EE000014316D0B9F1000F0BDB4A46C11700F0D1
:101EF0005FFA05430C43A9F1040905E001200590B0
:101F000007E008B145F0010501200490059800B9EB
:101F1000361DB969089808F101088847BBF1000F20
:101F2000AAF1010A0290CDD00999C1F80080C9E751
:101F30000298702808D0502806D0F9690898884778
:101F4000BBF1000F14D04FE0002002900120BBF144
:101F5000000F049009D0B969089808F10108884772
:101F6000AAF10109B9F1000F07DCF969089888475F
:101F70006FF001000BB0BDE8F08F2B2804D02D28A6
:101F80000CD14FF0FF300490B969089808F10108AE
:101F90008847A9F10109B9F1000FE6DD411CE4D041
:101FA0000A2100F018FA0028DFDB029908F1010885
:101FB00001EB810100EB41000290B9690898884764
:101FC0000A2100F008FA099AA9F10109B9F1000FF4
:101FD000C2F8008001DD0028E7DAF969089888472F
:101FE0000499029800FB016655EA040004D004F04D
:101FF0004041090002D006E0039898E0A40044EABA
:102000009574AD00B61E04F00041080002D16D19B0
:102010006441761E159810F0240F03D04FF00B0981
:102020005C4803E04FF028096FF07D00824656457A
:1020300007DAAAEB06018944B9F1410F01DD4FF03F
:10204000410901200021A9F1010200F0B1F9024685
:1020500028400B462140084301D0012100E0002127
:10206000501E029143F1FF3128402140084301D026
:10207000012000E000200299834651EA0B014FD075
:10208000002108464FF00000039900F4400039B1E8
:1020900000EB80004FF4400100EBD07001EA6000DB
:1020A0008015012802DD4FF0FF3000E013D0401C06
:1020B00036D0029860B3BBF1000F0CD14A46012024
:1020C000002100F075F928402140084301D001208B
:1020D00000E00020E0B101204A46002100F068F94C
:1020E000034640190A4661412D1A8C4111D3B9F1BA
:1020F000400F09DD159810F0240F02D0AAF1340624
:1021000003E0AAF1170600E0761C00254FF000441A
:1021100006E05B1E42F1FF3220EA030521EA0204D9
:10212000CAF10100B04206DA1B4903980843019046
:10213000002000900EE0039AC4F3D321E80A0A437A
:10214000164940EA44500A433146CDE90002684648
:1021500002F006F8159810F0240F0BD01598C00760
:1021600015D13868DDE90012031D3B600068C0E945
:1021700000120CE002A8694601F07AFF1598C0072A
:1021800005D13868029A011D396000680260404636
:10219000F0E6000002FCFFFF0000F07F0000F03FCF
:1021A0002DE9FF4F92461D4685B04FF00041DDE915
:1021B000124BDDE914727F1E01EA4B50414940F099
:1021C000FF4940EA0108002122F02000492804913B
:1021D00002D04E2828D04CE03BA0012607C88DE84D
:1021E0000700A9690698641C88477F1E014606D42B
:1021F0001DF8060018B121F0200181420BD0E969D9
:1022000006988847032E34D0082E32D06FF0010094
:1022100009B0BDE8F08F761C032E01D0082EE0D166
:10222000601CCAF80000DCE7A9690698641C8847AE
:102230007F1E2AD420F02000412826D1A9690698C3
:10224000641C88477F1E20D420F020004E281CD11B
:10225000A9690698641C88477F1E48F4002849F441
:102260008009CAF8004001D4282806D0E9690698F8
:1022700088475FEACB7012D022E0A9690698641CF7
:1022800088477F1E01D4002803DAE9690698884749
:10229000BCE72928F1D1641CCAF80040E9E71BF02B
:1022A000240F07D028680499031D2B600068C0E93B
:1022B000001805E02868021D2A600068C0F8009038
:1022C0002046A5E70000F07F494E46494E49545943
:1022D000000000000446AFF300802046FDF77BFFBE
:1022E00070B505460C460A2000E06D1C00F058F859
:1022F00035B128780028F8D102E0641C00F050F8CD
:1023000014B120780028F8D1BDE870400A2000F010
:1023100047B810B500F06EF8BDE81040FFF742BDB9
:102320004FF0013C50F8042B51F8043B9A4221D164
:10233000A2EB0C03934313EACC1317D150F8042BF0
:1023400051F8043B9A4215D1A2EB0C03934313EAD4
:10235000CC130BD150F8042B51F8043B9A4209D10D
:10236000A2EB0C03934313EACC13DBD04FF0000035
:10237000704700BFD01A01BAB1FA81F101F018011B
:1023800022FA01F0CB40C1F12001DBB2C0B2C01A89
:102390002CFA01F3D11A914311EAC311E6D1704727
:1023A00008B569468DF800000320ABBE08BD704734
:1023B000B2F120030AD5C2F1200301FA02F120FA9A
:1023C00003F300FA02F041EA0301704700FA03F157
:1023D0004FF0000070473A2800D2303820F0200239
:1023E000412A01D3A2F13700884201D34FF0FF30D8
:1023F0007047000010B5012805D0002103A0FFF7A9
:102400006FFF012010BD09A1F8E7000053494752B2
:10241000544D454D3A204F7574206F6620686561B4
:1024200070206D656D6F7279000000003A2048657C
:102430006170206D656D6F727920636F7272757057
:10244000746564005FEA400C08BF91F0000F4FEA2A
:102450008C234FEAC12243EA51514FEA1C5018BF66
:1024600000F5F0404FEA300018BF41F000415FEA4C
:102470006C5C00F02980BCF1FF3F08BF40F0804059
:102480007047130C06BF12044FF0100C4FF0000CF5
:10249000130E04BF12020CF1080C130F04BF12013B
:1024A0000CF1040C930F04BF92000CF1020CD30F3B
:1024B00004BF52000CF1010C11464FF00002A0F1D4
:1024C0001F00A0EB0C00704711F0004F08BF7047D1
:1024D00031F000413FF4D5AF0B0C06BF09044FF0BB
:1024E000100C4FF0000C0B0E04BF09020CF1080C8D
:1024F0000B0F04BF09010CF1040C8B0F04BF890002
:102500000CF1020CCB0F04BF49000CF1010CCCF113
:102510002003A0EB0C0022FA03F302FA0CF241EACA
:10252000030100F10100704720F07F4C80EA0300B6
:1025300023F07F47ACEB070303F57C5300F000402A
:1025400003F1FF032DE980494FEA154B09B44FEA27
:10255000144325EA0B4E24EA03480FF2042606EB47
:10256000132749083E785FEA320203FB0667C7F586
:10257000000707FB06F64FEA54374FEAD64606F146
:10258000020607FB066CCCF1005C4FEA1C472CEA04
:10259000074C07FB06F40CFB06F504EB15464FEA67
:1025A000961634BF00204FF000404FEAD13706FBAB
:1025B00007FC4FEA1C4C0CFB0BF7D21B03FB0CF780
:1025C00061EB07010CFB0EF7B0EB074072EB174213
:1025D0000CFB08F734BFA2EB0742B2EB074261EBFA
:1025E00017414FEA0C444FEA910706FB07FC4FEAFC
:1025F0001C4C0CFB0BF7B0EBC74072EB573203FBE4
:102600000CF734BFA2EBC742B2EBC74261EB5731C4
:102610000CFB0EF7B0EBC70072EB57720CFB08F720
:1026200034BFA2EBC702B2EBC70261EB5771039F45
:102630004FEA816141EA921104EBCC044FEAD137B1
:102640004FEA826206FB07FC42EA90124FEA806082
:102650004FEA1C4C0CFB0BF7D21B03FB0CF761EB96
:1026600007010CFB0EF7B0EB074072EB17420CFBB7
:1026700008F734BFA2EB0742B2EB074261EB174108
:102680004FEA8C554FEA910704EB9C2406FB07FCAC
:102690004FEA1C4C0CFB0BF7B0EBC74072EB573208
:1026A00003FB0CF734BFA2EBC742B2EBC74261EBAE
:1026B00057310CFB0EF7B0EBC70072EB57720CFBF7
:1026C00008F734BFA2EBC702B2EBC70261EB577148
:1026D00015EB4C254FEA816141EA92114FEA826283
:1026E0004FEAD13742EA901206FB07FC44F100049E
:1026F0004FEA80604FEA1C4C0CFB0BF7D21B03FB2C
:102700000CF761EB07010CFB0EF7B0EB074072EB27
:1027100017420CFB08F734BFA2EB0742B2EB0742AB
:1027200061EB174115EB1C154FEA813141EA9241EB
:102730004FEA823242EA90424FEA80304FEA0C760A
:1027400044F1000448EA03434EEA0B484FF0000E00
:10275000B2EB080C71EB030724BF624639464EEB1F
:102760000E0E4FF0000B0018524149414BEB0B0B82
:10277000B2EB080C71EB03077BF1000B24BF624640
:1027800039464EEB0E0E4FF0000B001852414941F6
:102790004BEB0B0BB2EB080C71EB03077BF1000B5F
:1027A00024BF624639464EEB0E0E51EA020718BFAF
:1027B00046F0010616EB0E7655F1000254F10001C9
:1027C00003D5BDE88901BDE80088BDE88901BDE801
:1027D0000048B619524141EB0101A3F101037047D2
:1027E00080807F7E7D7C7B7A79787776767574734E
:1027F000727171706F6E6E6D6C6C6B6A6A6968680D
:10280000676666656464636362616160605F5F5EA2
:102810005E5D5D5C5C5B5B5A5A5959585857575618
:10282000565555555454535352525251515050507D
:102830004F4F4F4E4E4D4D4D4C4C4C4B4B4B4A4ACF
:102840004A49494948484847474747464646454513
:10285000454444444443434343424242424141414C
:1028600046EA0646A3F570534FEA164646EA425634
:102870004FEAD22242EA415210B54FEAD121A3F1E8
:10288000010300F017F820F0004000F1010C00F007
:10289000004701EB00501146BCF5006F40EA07000D
:1028A00000D210BD02484FF0000140EA070010BD01
:1028B0000000F07F002B26D4770021D01CB54FEA12
:1028C000370703B44FF010004FF010014FF0000035
:1028D0000FBCBDE810400BF1010BBBF1010F08BFAD
:1028E0005FEA170722BF12F1010211F101014FF057
:1028F000004143F1000300F0004043EA000070474C
:10290000F9D35708DAE746EA064613F1400F4FEAD3
:1029100016461FDD13F1200FDFBF16430A460021C4
:1029200020335B42C8D0C3F1200746EA064602FACC
:1029300007F74FEA164646EA0706C3F1200722FAD0
:1029400003F201FA07F721FA03F14FF0000342EA1C
:102950000702B1E746EA020646EA06464FEA16468D
:1029600046EA0106BCBF46EA0646360C4FF00003B5
:102970004FF000024FF000019EE72DE9C04893465A
:1029800030B491E8380007C831EA400C48BF34EA57
:10299000430C03D5FFF7C8FDFFF78CFFF0BCBDE883
:1029A00000882DE9C048934630B491E8380007C844
:1029B00031EA400C48BF34EA430C03D5FFF7B4FDBD
:1029C000FFF74EFFF0BCBDE800882DE9C0489346F4
:1029D00030B491E8380007C810F0804F08BF13F0FA
:1029E000804F03D100F019F8FFF764FFF0BCBDE899
:1029F00000882DE9C048934630B491E8380007C8F4
:102A000010F0804F08BF13F0804F03D100F005F89D
:102A1000FFF726FFF0BCBDE8008820F07F4780EA82
:102A2000030023F07F4C07EB0C03A3F57C5300F06D
:102A30000040A3F1FE0392F0000F00F0B38095F088
:102A4000000F00F077802DE901494FEA11404FEA6D
:102A5000144621EA004800FB06FC24EA064708FB6E
:102A600006F607FB08F800FB07F718EB06484CEBE7
:102A7000164C4FEA124B18EB07484FEA15464CEB41
:102A8000174022EA0B4E0BFB06FC25EA06470EFB1D
:102A900006F607FB0EFE0BFB07F71EEB064E4CEB94
:102AA000164C4FF000061EEB074E4CEB174B18EB85
:102AB0000B0840F1000018EB0E0B58EB000840F13A
:102AC00000008F1A4FF000013CBFC943661B14BFC2
:102AD000B5EB040C00213CBFC943F61B4FEA174479
:102AE0004EEA8E0E27EA04454FEA1C4704FB0762B4
:102AF0002CEA074C05FB07F70CFB05F604FB0CFC66
:102B000016EB074642EB174216EB0C4642EB1C4213
:102B10001BEB060658EB0202414146EA9E0601D530
:102B2000BDE80189B619524141EB0101A3F101034E
:102B3000BDE801894FEA14454FEA114724EA0546EA
:102B400021EA074C05FB07F406FB07F70CFB06F12F
:102B500005FB0CFC11EB074144EB17444FEA12470D
:102B600011EB0C4144EB1C4422EA074C05FB07F235
:102B700006FB07F70CFB06F605FB0CFC16EB0746FD
:102B800042EB174216EB0C4642EB1C456A1854F117
:102B9000000148BF7047B619524141EB0101A3F152
:102BA0000103704795F0000F37D04FEA11424FEA0A
:102BB000144721EA024624EA074C02FB07F106FB10
:102BC00007F70CFB06F402FB0CFC14EB074441EB8B
:102BD00017414FEA154714EB0C4441EB1C4125EA21
:102BE000074C02FB07F506FB07F70CFB06F602FB9A
:102BF0000CFC16EB074645EB174516EB0C4645EB70
:102C00001C42121951F1000148BF7047B6195241D8
:102C100041EB0101A3F1010370474FEA14454FEA6C
:102C2000114724EA054621EA074C05FB07F106FB9C
:102C300007F70CFB06F24FF0000605FB0CFC12EB4D
:102C4000074241EB174112EB0C4251EB1C4148BFCC
:102C50007047921841EB0101A3F101037047000096
:102C600010B5202000F03EF80021064800F048F89A
:102C7000054801688068814202D0022002F044FACF
:102C800010BD00001C000240A833002010B54FF416
:102C9000005000F027F80021054800F031F8054801
:102CA00001688068814202D0002002F02DFA10BD38
:102CB000440002404811002010B54FF0007000F0B1
:102CC00011F80021054800F01BF8054801688068EC
:102CD000814202D0012002F017FA10BD80000240AC
:102CE0007822002000F0805111B10349086001E012
:102CF000024948607047000004040240000002409E
:102D000021B1026842F00102026004E002684FF65D
:102D1000FE731A400260704701684FF6FE72114060
:102D200001600021016041608160C1604B498842BF
:102D300008D14A490839496841F00F01474A083A21
:102D400051608AE045491431884208D14349083925
:102D5000496841F0F001414A083A51607DE03F493D
:102D60002831884208D13D490839496841F47061E9
:102D70003A4A083A516070E038493C31884208D1FB
:102D800036490839496841F47041344A083A51607B
:102D900063E032495031884208D1304908394968E6
:102DA00041F470212D4A083A516056E02B496431B4
:102DB000884208D129490839496841F47001274AF5
:102DC000083A516049E025497831884208D12349C1
:102DD0000839496841F07061204A083A51603CE086
:102DE0001F49884206D1011F096841F00F01021FE7
:102DF000116032E01A491431884208D11849091F7C
:102E0000096841F0F001164A121F116025E01449CB
:102E10002831884208D11249091F096841F47061BC
:102E20000F4A121F116018E00D493C31884208D149
:102E30000B49091F096841F47041094A121F1160CA
:102E40000BE007495031884207D10549091F09683D
:102E500041F47021024A121F1160704708000240BD
:102E6000080402401AB103680B43036002E00368E0
:102E70008B430360704710B50022026847F6F07379
:102E80009A430C6A8B6823430C6923434C692343A0
:102E90008C692343CC6923434C6A23438C6A2343C4
:102EA0001A430260CB6843600B6883604B68C36061
:102EB00010BD00000149C8607047000000200240BA
:102EC00030B5044604254FF4302000F085F805465F
:102ED000042D17D10C48006940F002000A4908612E
:102EE00008464461006940F0400008614FF430201A
:102EF00000F072F805460448006941F6FD7108408B
:102F000001490861284630BD0020024004200B49D9
:102F1000C96801F0010109B101200EE00749C96843
:102F200001F0040109B1022007E00449C96801F079
:102F3000100109B1032000E0042070470020024086
:102F40000348006940F080000149086170470000B3
:102F50000020024078B506460C460425002000906B
:102F6000E80200F039F80546042D24D11348006921
:102F700040F00100114908613480E80200F02CF8AB
:102F80000546042D10D1B01C0090200C009908803B
:102F9000E80200F021F805460848006941F6FE7194
:102FA00008400649086106E00448006941F6FE71E0
:102FB000084002490861284678BD00000020024010
:102FC0000248034948600348486070472301674549
:102FD00000200240AB89EFCD00B502460423FFF785
:102FE00095FF034603E0FFF791FF0346521E012BB6
:102FF00001D1002AF7D102B90523184600BD2DE9F9
:10300000F04102460025002600200023002400276E
:1030100091F803C00CF00F0591F803C00CF0100CF0
:10302000BCF1000F03D091F802C04CEA050591F8FD
:1030300000C0BCF1000F31D0146800202BE04FF02D
:10304000010C0CFA00F3B1F800C00CEA03069E4232
:1030500020D183004FF00F0C0CFA03F7BC4305FAA4
:1030600003FC4CEA040491F803C0BCF1280F06D11C
:103070004FF0010C0CFA00FCC2F814C00AE091F801
:1030800003C0BCF1480F05D14FF0010C0CFA00FC55
:10309000C2F810C0401C0828D1D31460B1F800C099
:1030A000BCF1FF0F34DD546800202EE000F1080C65
:1030B0004FF0010808FA0CF3B1F800C00CEA03065F
:1030C0009E4221D183004FF00F0C0CFA03F7BC4352
:1030D00005FA03FC4CEA040491F803C0BCF1280F84
:1030E00005D100F1080C08FA0CF8C2F8148091F828
:1030F00003C0BCF1480F07D100F1080C4FF00108E4
:1031000008FA0CF8C2F81080401C0828CED354608E
:10311000BDE8F081F0B50A46002300240021002517
:1031200000F00046B6F1004F02D11D4EF16901E0FA
:103130001B4E7168C0F3034583B200F44016B6F528
:10314000401F08D121F07061154E766826F0706638
:10315000134F7E6012E000F48016B6F5801F06D192
:10316000032606FA05F4A14341F0706106E0460D1E
:10317000360103FA06F6B14341F0706122B1460D03
:10318000360103FA06F6314300F00046B6F1004F6F
:1031900002D1034EF16101E0014E7160F0BD00000B
:1031A0000000014070B5002100230F22C47804B351
:1031B000154C246804F4E064C4F5E064210AC1F10C
:1031C0000403CA40447804FA03F18478144021438C
:1031D00009010E4C0678A155047804F01F0501245E
:1031E000AC4005786D11AD0005F1E025C5F8004152
:1031F00009E0047804F01F050124AC40044D067872
:10320000761145F8264070BD0CED00E000E400E0CA
:1032100080E100E029B1064A52690243044B5A6139
:1032200004E0034A52698243014B5A61704700002F
:103230000010024029B1064AD2690243044BDA6108
:1032400004E0034AD2698243014BDA61704700000F
:103250000010024029B1064A92690243044B9A6168
:1032600004E0034A92698243014B9A61704700006F
:10327000001002400348406A40F0807001494862F3
:10328000704700000010024030B5002100220024E9
:1032900000232D4D6D6805F00C0121B1042905D0E6
:1032A000082923D105E0294D056022E0274D05605E
:1032B0001FE0254D6D6805F47012234D6D6805F40F
:1032C0008034022505EB92421CB9214D554305601F
:1032D0000BE01D4D6D6805F400351DB11C4D5543C7
:1032E000056002E0194D5543056002E0174D056089
:1032F00000BF00BF144D6D6805F0F0010909154DC0
:103300006B5C0568DD4045600F4D6D6805F4E0615C
:10331000090A104D6B5C4568DD4085600A4D6D689B
:1033200005F46051C90A0B4D6B5C4568DD40C56012
:10333000054D6D6805F44041890B074D6B5CC56810
:10334000B5FBF3F5056130BD0010024000127A00B4
:1033500000093D00000000201000002010B50146CB
:103360000022002300204A11012A02D1094C2368BF
:1033700006E0022A02D1074C236A01E0054C636A89
:1033800001F01F02012494401C400CB1012000E018
:10339000002010BD00100240014908607047000085
:1033A0000000424210B500F001F810BD0CB500203D
:1033B000019000903348006840F480303149086043
:1033C00000BF3048006800F4003000900198401CB5
:1033D0000190009818B90198B0F5A06FF1D1294873
:1033E000006800F4003010B10120009001E00020DE
:1033F00000900098012843D12348006840F0100055
:10340000214908600846006820F00300086008466B
:10341000006840F0020008601A4840681949486096
:103420000846406848600846406840F4806048604C
:103430000846406820F47C1048600846406840F424
:10344000E81048600846006840F08070086000BFDF
:103450000C48006800F000700028F9D00948406866
:1034600020F00300074948600846406840F0020029
:10347000486000BF0348406800F00C000828F9D1FC
:103480000CBD000000100240002002402DE9F04178
:1034900001F006FC1948006802F02EFA06461848AA
:1034A000006802F029FA074616490968164A1268A8
:1034B000881A02F021FA8046144902F065FA05469E
:1034C000394602F061FA0446314602F01FF910490C
:1034D00008600C4800680C49086000200749086033
:1034E00001F08AFE01F03CFF00F04CFE0948006844
:1034F000401C08490860BDE8F08100005000002031
:10350000480000204C0000205C0000200000C84261
:10351000600000205800002010B51348006840F0FB
:1035200001001149086008464068104908400E49EA
:103530004860084600680E4908400B490860084684
:10354000006820F4802008600846406820F4FE00EF
:1035500048604FF41F008860FFF724FF4FF00060C1
:103560000449086010BD0000001002400000FFF890
:10357000FFFFF6FE08ED00E021B1828942F400521F
:10358000828104E082894DF6FF731A408281704780
:103590001AB1838A0B43838202E0838A8B4383823E
:1035A000704700002DE9F04786B005460E4600241E
:1035B000A24600BFA1460027B08900B100BF2F4638
:1035C0002C8A4CF6FF700440F08804432C82AC89AE
:1035D0004EF6F3100440B0883189084371890843DE
:1035E0000443AC81AC8A4FF6FF400440B0890443E9
:1035F000AC8201A8FFF748FE1F48874202D1DDF8E0
:1036000010A001E0DDF80CA0A88900F4004040B152
:103610000AEBCA0000EB0A1031684900B0FBF1F870
:1036200007E00AEBCA0000EB0A1031688900B0FB22
:10363000F1F86420B8FBF0F004012009642101FBDB
:103640001089A88900F4004040B1322000EBC90085
:10365000B0FBF1F000F00700044308E0322000EB7B
:1036600009106421B0FBF1F000F00F0004432C813D
:1036700006B0BDE8F08700000038014070B5C2B068
:1036800004460E46154601A800F0B4FC20783E28FA
:1036900017D101A861784171002280F800210271E0
:1036A00000BFA0788DF80401A278211D0DF10A0059
:1036B000FDF77FF8012201A9284600F01FFB42B068
:1036C00070BD0120FBE7000070B5E8B00446A079AA
:1036D00008287DD2DFE800F088041A344D8866811E
:1036E00000206590669067906420ADF8940165AD08
:1036F0004B4E684600F040FB6946284600F053F9FF
:1037000001226946304600F0EBFB85E00020619025
:1037100062906390649094F80021E11D61A8FDF728
:1037200048F861AD3F4E684600F064FC69462846A3
:1037300000F00EF901226946304600F0DFFA6BE036
:1037400014215CA8FDF79CF894F80021E11D5CA809
:10375000FDF72FF85CAD334E684600F04BFC694630
:10376000284600F075F801226946304600F0C6FA96
:1037700052E0242153A8FDF783F894F80021E11DBD
:1037800053A8FDF716F853AD264E684600F032FCFC
:103790006946284600F091F801226946304600F05B
:1037A000ADFA39E0402143A8FDF76AF894F800210A
:1037B000E11D43A8FCF7FDFF43AD1A4E684600F03B
:1037C00019FC6946284600F0BCF90122694600E070
:1037D0000AE0304600F092FA1EE094F80011114A17
:1037E000E01DFFF74BFF17E000204190429064205E
:1037F000ADF80401A079ADF8060141AD084E684668
:1038000000F0BAFA6946284600F0EDF80122694650
:10381000304600F065FB00BF00BF68B070BD00001F
:1038200068360020D834002010B5002807DA0A07CF
:10383000140E054A00F00F031B1FD45403E00A07BF
:10384000130E024A135410BD18ED00E000E400E02E
:1038500070B504460D464921284600F0A7FBB4F98F
:103860000010284600F085FBB4F90210284600F04D
:1038700080FBB4F90410284600F07BFBB4F9061075
:10388000284600F076FBB4F90810284600F071FBDA
:10389000B4F90610284600F06CFBB4F90C10284669
:1038A00000F067FBB4F90E10284600F062FBB4F993
:1038B0001010284600F05DFB70BD70B505460C4643
:1038C0003921204600F072FB297820688268204662
:1038D00090476978206882682046904770BD70B52F
:1038E00004460D460021284600F033FA03212846FD
:1038F00000F02DFAB4F90010284600F083FBB4F96B
:103900000210284600F07EFBB4F90410284600F0AF
:1039100079FBB4F90610284600F074FBB4F90810DE
:10392000284600F06FFBB4F90A10284600F06AFB45
:10393000B4F90C10284600F065FBB4F90E102846C7
:1039400000F060FBB4F91010284600F05BFB70BD7E
:1039500070B504460D464321284600F027FB217828
:103960002868826828469047B4F90210284600F07B
:1039700000FBB4F90410284600F0FBFAB4F9061075
:10398000284600F0F6FAB4F90810284600F0F1FADB
:10399000B4F90A10284600F0ECFAB4F90C102846E5
:1039A00000F0E7FA70BD70B504460D4600212846C8
:1039B00000F0CFF90121284600F0C9F9208801B2B2
:1039C000284600F01FFBB4F90210284600F01AFB4D
:1039D000B4F90410284600F015FBB4F90610284687
:1039E00000F010FB70BD70B504460D46002128465E
:1039F00000F0AFF90821284600F0A9F921782868DD
:103A0000826828469047B4F90210284600F0FAFA76
:103A100070BD70B504460D4600260CE0284600F047
:103A20008BFA24F82600284600F086FA04EB86017B
:103A30004880701CC6B2032EF0DB284600F07CFAEA
:103A4000A081284600F078FAE0810421284600F0A1
:103A500082FA062204F11401284600F050FA0322EB
:103A600004F12001284600F04AFA032204F126015D
:103A7000284600F044FA032204F12C01284600F005
:103A80003EFA284600F058FA24F8320F284600F093
:103A900053FA60802868416828468847284600F025
:103AA0004BFAE080286841682846884720722868D9
:103AB00041682846884760722868416828468847D8
:103AC000A072323C032204F13D01284600F022FAA4
:103AD000687919282CD1032204F14001284600F00E
:103AE0000EFA2868416828468847032204F14801F5
:103AF000284600F004FA284600F01EFAA4F84E000A
:103B0000032204F15001284600F0F9F928684168C1
:103B10002846884740B284F85600286841682846FD
:103B2000884740B284F857002621284600F013FA4F
:103B30002868C1682846884708B1002070BD042065
:103B4000FCE770B505460E462D21304600F02EFAF2
:103B5000002406E035F91410304600F00AFA601C23
:103B6000C4B2202CF6DB70BD01464FF6FF707047E3
:103B700070B504466568022001F080FA70BD70B52A
:103B800004466568022001F09DFA70BD70B50546D7
:103B90000C466E682146022001F0F6FA00BF70BDA7
:103BA0004289521C4281704770B504460D46207907
:103BB000062853D2DFE800F00308131732463E2DE3
:103BC00001D10120207149E004F10C004571002170
:103BD00080F80011017100BF022020713EE0E580F5
:103BE000032020713AE0607CA1790844C0B2A84269
:103BF0000DD1E088FA280AD800BF0020207200BF4B
:103C0000E08808B9052000E00420207105E00121CA
:103C10002046FFF7C5FF002020711FE094F80C112B
:103C2000481C84F80C0104F11200455429460A3856
:103C300000F0B8F994F80C01E188884201D1052020
:103C400020710BE000202071207AA84201D10120D0
:103C500070BD01212046FFF7A3FF00BF00BF002079
:103C6000F6E72DE9F8430446884617461D46DDF879
:103C70002090206800283FD0FA2D3DDCB9F1000FDC
:103C800006D120680268D1688847691D884231DB07
:103C9000206801688A683E219047206801688A6828
:103CA00041469047E9B2206803689A68904708EB5C
:103CB0000503D9B2206803689A68904700BF0020C6
:103CC000009000BF00260AE0B95D206803689A688A
:103CD0009047B95D684600F065F9701CC6B2AE4207
:103CE000F2DB206801688A689DF800109047002088
:103CF000BDE8F8830320FBE70220F9E7F8B50646A4
:103D00000C461546009594F800316179A21D3046A5
:103D1000FFF7A7FFF8BD01464FF6FF70704770B57B
:103D200004466568012001F0A9F970BD70B504462C
:103D30006568012001F0C6F970BD70B505460C46F6
:103D40006E682146012001F01FFA00BF70BD81712D
:103D5000704741710022827180F800210271704722
:103D600090F80021F92A06D290F800315A1C80F808
:103D70000021C21DD15470470149024901607047BA
:103D8000745E0008185E00084289521C4281704728
:103D900070B504460D462079072856D2DFE800F0BA
:103DA00004091E25293A4A00212D01D10120207144
:103DB0004BE0022D06DB01212046FFF7E5FF002046
:103DC00020710AE004F10C0045710021817180F836
:103DD0000011017100BF0220207136E004F10C00D7
:103DE000857100BF032020712FE0E5800420207141
:103DF0002BE0402D07D1E08810B90620207108E0A3
:103E00000520207105E001212046FFF7BDFF0020BD
:103E100020711AE094F80C11481C84F80C0104F18C
:103E20001300455494F80C01E188884201D1062022
:103E300020710AE000202071232D01D1012070BDE6
:103E400001212046FFF7A0FF00BF00BF0020F6E7DA
:103E50002DE9F0470446894617469846DDE9085A99
:103E6000206800283AD0F92D38DCBAF1000F06D1CD
:103E700020680268D1688847A91D88422CDB206829
:103E800001688A6821219047206801688A6839465C
:103E90009047206801688A6849469047E9B22068DF
:103EA00003689A689047206801688A6840219047B3
:103EB000002607E018F80610206803689A68904703
:103EC000701CC6B2AE42F5DB206801688A68232107
:103ED00090470020BDE8F0870320FBE70220F9E7C8
:103EE0007CB506460C46154694F80001CDE9000560
:103EF0006279A179E31D3046FFF7AAFF7CBD70B55A
:103F000005460E4614466006020E3146284600F06D
:103F100001F870BD2DE9F04105460E461746002414
:103F200006E028684168284688473055601CC4B2BE
:103F3000BC42F6DBBDE8F08170B5044620684168FC
:103F4000204688470546206841682046884705EB9B
:103F5000002000B270BD70B504460D4603E0206835
:103F6000416820468847281EA5F10101CDB2F6DC44
:103F700070BD70B504460D46E9B2206882682046DF
:103F800090472068C5F3072182682046904770BD9E
:103F9000014691F800010A79904201D10120704751
:103FA0000020FCE702780A44027070474171002249
:103FB00080F80021027170470146087991F80021CC
:103FC000904205DA0A79501C0871881D805C7047A0
:103FD0000879401C08710020F9E790F80021FA2ABE
:103FE00006D290F800315A1C80F80021821DD1546D
:103FF000704700000149024901607047485E0008AF
:104000005C5E000870B504460D46E9B2206882681F
:10401000204690472068C5F30721826820469047D4
:1040200070BD490050EAC12018BF04204A0D18BFD6
:1040300040F0010040F2FF72B2EB515F08BF40F068
:104040000200012808BF052070470020FDF730BBA3
:1040500040F2013200204FF0E04101F0C8BD000005
:10406000024A0020110701F0C2BD000001FDFFFF60
:1040700010B50446D1E9000100F002F8206010BD3F
:10408000F8B504460D466A4600F086FC00987E307E
:10409000009000281FDC002213462046294601F02C
:1040A000FBF918D0002140F608004FF0000006464A
:1040B0002046294601F0AAF9044640F6080006EA1F
:1040C00000014FF0000034F0004004BF0220FDF773
:1040D000D5FE2046F8BD0098FF280DDB0220FDF735
:1040E000CDFE002213462046294601F0A1FA8CBFDE
:1040F00004484FF0FF40F8BD20462946BDE8F8408F
:1041000001F084B9000080FF10B5064C04F10C00EA
:10411000FFF770FFA0F10C04034804490449016053
:1041200010BD0000D83400206C000020E85D0008BD
:10413000005E000810B5064C04F10C00FFF71CFEF1
:10414000A0F10C04034804490449016010BD0000BB
:104150006836002078000020305E0008D05D00083E
:1041600010B504460A46D4E90003194600F043FCA2
:10417000C4E9000110BD30380A2801D2012070477F
:104180000020704710B5002000F0AEF910BD2DE9F9
:10419000F04105460C462F4626463068FCF7EAFA01
:1041A0008046316842463868FCF7B6FABDE8F081CF
:1041B0001FB5044600200190029003900194054829
:1041C0000C2305220449009001A8FCF77DFA04B0F5
:1041D00010BD00008F410008885C000870B50446DF
:1041E0000D4603A000F080FE00F034FD70BD00001D
:1041F0005265626F6F74696E6720696E20626F6FBF
:1042000074206C6F61646572206D6F64652E2E2E54
:104210000D0A00007CB505460C466A4619A12046E9
:10422000FCF7C4F9012803D0284600F045F928E03E
:1042300015A16846FCF789FA28B900F017FB14A00D
:1042400000F052FE1DE019A16846FCF77EFA28B97D
:1042500000F01CFB17A000F047FE12E01BA168460F
:10426000FCF773FA50B900F033FB18B119A000F055
:104270003BFE06E01DA000F037FE02E0284600F0FD
:104280001BF97CBD2538730064656661756C74002C
:10429000434F4E4649473A2064656661756C7473B6
:1042A000206C6F616465640D0A00000072656164D2
:1042B00000000000434F4E4649473A207265616452
:1042C00020666C6173680D0A0000000077726974E3
:1042D00065000000434F4E4649473A2077726F749D
:1042E0006520666C6173680D0A000000434F4E46FE
:1042F00049473A20777269746520666C617368205B
:104300006661696C6564210D0A00000070B50546A0
:104310000E460FA000F0E8FD002415E004EB440178
:10432000114A52F8210000F0DFFD202000F09CFE31
:1043300004EB44010C4A02EB8101486800F0D4FD13
:104340000AA000F0D1FD641C052CE7D370BD00006D
:10435000417661696C61626C6520636F6D6D616E41
:1043600064733A0D0A0A0000885C00080D0A000018
:10437000F0B589B006460D4601AA20A12846FCF7F3
:1043800015F9012803D0304600F096F833E01DA15E
:1043900001A8FCF7DAF940B9012403E0204600F057
:1043A00057F8641C032CF9DB25E001A800F01CFA87
:1043B0000446002C08DA01AA14A11C48FBF754FF9C
:1043C0001A4800F091FD16E001A8FCF7D3F9284443
:1043D000471C6A4616A13846FCF7E8F8012807D1C1
:1043E0002046009900F062FA204600F031F802E021
:1043F000204600F02DF809B0F0BD000025333273DF
:10440000000000006C697374000000005345543ACA
:10441000206E6F207375636820706172616D6574C2
:10442000657220272573270D0A000000FC0000207C
:104430002566000070B504460D462A462146002038
:1044400000F062F970BD10B5002000F077F910BDE2
:104450002DE9F041044610A5124850F824202946C1
:104460001148FBF701FF104800F03EFD0F4951F8DD
:10447000240001F013F906460B460D4850F82410AD
:1044800032460948FBF7F0FE074800F02DFD09A071
:1044900000F02AFDBDE8F081252D323073203D204B
:1044A000000000002C000020FC0000203C01002047
:1044B000380000200D0A000010B5044607A000F0E7
:1044C00013FD206800F010FD202000F0CDFD606895
:1044D00000F00AFD03A000F007FD10BD75736167D1
:1044E000653A20000D0A00002DE9F04104467048AD
:1044F000006848B36F4800686D490968B0FBF1F285
:1045000001FB120000BB6C49204600F0CDFD68485D
:1045100000684FF47A7191FBF0F52A4667A16D4867
:10452000FBF7A2FE6B49204600F0BEFD6AA12046C3
:1045300000F0BAFD694800EB4411204600F0B4FDDC
:104540006749204600F0B0FDA9E0204600F0BAFD22
:104550000546644850F8241050F82400401C614A75
:1045600042F824005D4800EB44104554104650F8D2
:104570002400202807D1104650F82400401E114680
:1045800041F824000A25574850F82400002833D069
:104590000A2D01D00D2D2FD1524850F824000128AA
:1045A00026DD51A1204600F07FFD5049204600F055
:1045B0007BFD0020494901EB44114A4A52F824206E
:1045C0008854464901EB4410FFF7F2FD06465EB100
:1045D0003068FCF7CFF8414901EB441147183946E0
:1045E0003046B268904703E041A1204600F05CFDF0
:1045F000204600F0DFF851E0032D03D1204600F003
:10460000D9F84BE0082D35D1364850F82400012860
:1046100028DD0021314800EB4412324850F82400D4
:10462000801E115437A1204600F03EFD2B4800EBC0
:104630004411204600F038FD2021204600F0A4FD62
:1046400030A1204600F030FD244800EB4411204604
:1046500000F02AFD234850F82400801E214941F82B
:1046600024001BE01F4850F82400401E1D4941F85B
:10467000240013E0202D01DB7E2D0BDD07212046D9
:1046800000F082FD174850F82400401E154941F8FB
:10469000240003E02946204600F076FD00BF2046B6
:1046A00000F0ECFC00287FF450AFBDE8F081000082
:1046B0002800002058000020C45C000854656C6588
:1046C0006D65747279204020256420487A0D0A0AAD
:1046D00000000000FC0000200A3E200090000020A6
:1046E000CD5C0008F00000200D0A0000D15C00083D
:1046F000436F6D6D616E64206E6F7420666F756EB2
:10470000640000000D3E200070B504460D461646BC
:10471000044A05A10848FBF7A7FD0749204600F019
:10472000C3FC70BD80000020574F464C2076657258
:104730002025730D0A000000FC00002038B5044657
:104740000F49204600F0B0FC0E49204600F0ACFCBA
:1047500000F04EF905462B460BA20DA1104800941F
:10476000FBF782FD002211462046FFF7CDFF0DA189
:10477000204600F099FC204600F01CF838BD0000EF
:10478000C45C0008C85C0008312E302E30000000E8
:1047900025732E25642C706F72743A256400000016
:1047A000800000200D0A434C492072656164792E17
:1047B0000D0A000010B5044607A1204600F074FC65
:1047C000074901EB44102021FCF738F80020054987
:1047D00041F8240010BD00000D0A3E20000000003A
:1047E00090000020F000002070B50546002410E085
:1047F0000A4951F82400FBF7BDFF0646074951F866
:10480000240032462946FBF787FF08B9204670BDD1
:10481000641C032CECDB4FF0FF30F8E72C00002089
:1048200010B500F023F80F480468204620F000413E
:10483000C1F1FF41C90F11B100F04AF810E00A4878
:104840000168204601F06CF902D800F01FF807E07B
:1048500005490868214601F063F901D200F038F8F3
:1048600010BD000000FC00083C01002010B54FF016
:104870007E5004490860044848600020886000F0C9
:1048800011F810BD3C0100200000E14710B50348BD
:10489000034B0ECB0EC000F005F810BD3C0100200C
:1048A00000FC000810B500F029FB10BD70B50446EF
:1048B0000D460026002C07DB032C05DA034840F8E0
:1048C0002450FFF7EFFF0126304670BD3C01002069
:1048D0002DE9F041002640F2E73000F0E2F907460A
:1048E0000120FEF759FD01E000F0DAF92120FEF782
:1048F00035FD0128F8D1FEF763FB3420FEF7DAFA24
:104900001548FEF7DDFA0546042812D100240AE016
:10491000124A1159104AA018FEF71CFB054604283C
:1049200000D004E0241D042D01D10C2CF0D300BFD5
:104930000126FEF705FB00F0B3F90020FEF72CFD81
:1049400000BF2120FEF70AFD0128FAD0384600F00A
:10495000A8F93046BDE8F08100FC00083C010020C9
:10496000F8B506460D4608210120FBF769FC044610
:104970002660A580A08821684861ADF8005003201A
:104980008DF8020010208DF8030069463046FEF7CE
:1049900036FB2046F8BD000010B514460022226008
:1049A000114A21F000439342A8BF10BD53EA000210
:1049B00008BF10BDB3F5801FA8BF226807DA3622F2
:1049C00001F015F96FF0350221F000432260DFF8A5
:1049D0001CC06FF31E510CEB23531A4441F0FF51DE
:1049E00041F00051226010BD0000F07F02FCFFFF8B
:1049F00040F2476070472DE9F04106460C4640F210
:104A0000FF75174635EA14502BD000221346304666
:104A100000F042FD25D03A463046214601F0E7F845
:104A200006460C4635EA145010D000221346304694
:104A300000F032FD15D10220FDF720FAFFF710FB40
:104A40000A46214662F31E01BDE8F0810220FDF70F
:104A500015FAFFF7FDFA0A46214662F31E01BDE88A
:104A6000F08130462146BDE8F081000008B500F035
:104A700075F808212048FFF773FF20490860FFF709
:104A8000CFFE00F0ADF900F00FF9FFF7DCFC00F00D
:104A90009FFB00F051FC194800688088174909689D
:104AA00009680861164C251F164E306840F080706A
:104AB0003060286840F0010028604FF6FF7012490E
:104AC000086018E011480068401C10490860FBF7B6
:104AD00089FB20680090002020600D480068009944
:104AE00008440B490860084900980968884202D2C6
:104AF000054900980860E5E7000C014044000020EB
:104B0000041000E0FCED00E0480000204C00002014
:104B10005000002010B500F093F80D49884215D1DF
:104B2000002000F0A5F801211D20FEF793FB0121D4
:104B30000848FEF7EFFA08210748FFF711FF04467F
:104B4000A08821684861FBF753FB00BF10BD00003F
:104B5000EDA5CEDE00023000000C014008B5FFF7E5
:104B6000D9FF3248006840F4802030490860084688
:104B7000006840F4003008600846006840F4803067
:104B8000086001211C20FEF765FB0121C802FEF729
:104B900061FB01210846FEF74DFB01210220FEF7D3
:104BA00049FB01210420FEF745FB01210846FEF7E1
:104BB00051FB01210846FEF72DFB01218803FEF77A
:104BC00049FB01214804FEF735FB01218804FEF76B
:104BD00031FB01214806FEF72DFB01214FF0C050AB
:104BE000FEF728FB4FF6FF70ADF8000000208DF8AF
:104BF000030069460E48FEF702FA69460D48FEF7C3
:104C0000FEF969460C48FEF7FAF901210B48FEF758
:104C100081FAFEF72FFB0020FEF7BEFB00BF21202C
:104C2000FEF79CFB0128FAD008BD000024ED00E04F
:104C300000080140000C014000100140000230005B
:104C40000348008802490831098840EA014070475A
:104C5000086C004010B5034800F00AF80248034908
:104C6000086010BDEDA5CEDE0400FA050CED00E0F5
:104C700010B5044601214FF0C050FEF7DBFA06489C
:104C8000006840F480700449086004490C80200CDE
:104C900002490831088010BD00700040086C0040D7
:104CA000704701460020704710B5124800684FF465
:104CB0007A71B0FBF1F4B4F1807F00D311E024F0FD
:104CC0007F40401E4FF0E02148610F214FF0FF3040
:104CD000FEF7AAFD00204FF0E0218861072008615F
:104CE00000BF0221C81EFEF79FFD1420FFF7D9FF69
:104CF00010BD00001400002030B58BB0054640F216
:104D000013106843354901EB00144FF480500990AB
:104D100000200A9041F224110859FDF7FDFF41F2ED
:104D20002C100059001D009041F20C00204401900D
:104D300000200290049006908020059000200790AB
:104D40004FF4807003902020089041F224110859FC
:104D50006946FEF790F841F2241108590121FDF748
:104D6000CFFF41F22C11085901224021FEF710FC1F
:104D700041F228110859FDF7CFFF41F22C100059DC
:104D8000001D0090102002900020049006908020CA
:104D90000590002007900390089041F228110859CF
:104DA0006946FEF768F841F22811085901220221EC
:104DB000FEF758F8002141F228100059416041F2F5
:104DC0002C11085901228021FEF7E2FB41F22C113F
:104DD00008590121FEF7D0FB0BB030BD480100207F
:104DE00070B5002415E0204600F0BCF8204600F025
:104DF00031F80949486800F04BFD05462946204630
:104E000000F052F8204600F009F82046FFF774FF42
:104E1000641C032CE7DB70BD3C01002038B5044660
:104E200040F2131060430A4901EB00154FF489501A
:104E3000405D8DF8000001208DF8010000208DF804
:104E4000020001208DF803006846FEF7ABF938BD7B
:104E50004801002038B5054640F213106843114957
:104E600001EB001441F21A10005BADF800000320C2
:104E70008DF8020018208DF8030041F21C1108592A
:104E80006946FEF7BCF841F21810005BADF800006F
:104E900048208DF8030041F21C1108596946FEF7BD
:104EA000AEF838BD480100207FB504460D4640F2FB
:104EB000131060430B4901EB001600950020ADF87C
:104EC0000400ADF80600ADF80800ADF80C000C20A9
:104ED000ADF80A0041F22C1188596946FEF762FBD1
:104EE0007FBD00004801002010B50446214602485D
:104EF000006800F0D9F810BD6400002010B5154915
:104F0000486800F0C5FC044600F0DEFC114948602A
:104F1000886800F0BDFC044600F0D6FC0D498860AE
:104F200048680D4900F0FCFC03D20B480949486071
:104F300008E008494868094900F0F2FD02D2074834
:104F4000044948600349886800F0A2FC04490860ED
:104F500010BD00003C010020000016460000614921
:104F600064000020014640F213124A43374B03EB22
:104F7000021021B101291DD0022952D135E04FF490
:104F8000007341F21A1213525B00921E1352304BFF
:104F9000121D13500E23121D13502E4B41F22C12D2
:104FA00013502D4B41F2241213502B4B143B121D66
:104FB000135036E0042341F21A1213520823921EB2
:104FC0001352234B121D13501123121D1350234B48
:104FD00041F22C121350204B143341F2241213507F
:104FE0001D4B2833121D13501BE04FF4806341F218
:104FF0001A1213525B00921E1352194B121D1350BA
:105000000C23121D1350174B41F22C121350124B4C
:10501000283B41F2241213500F4B3C3B121D1350FE
:1050200000BF00BF002341F210121350121F135093
:1050300041F204021350121D13504FF480521350CA
:10504000131141F214121350704700004801002060
:105050000008014000380140580002400044004070
:10506000000C01400048004010B5044621460248AB
:10507000006800F089F810BD64000020024640F28C
:1050800013105043074B03EB001141F2241040581A
:10509000436841F214104058834201D00120704708
:1050A0000020FCE74801002070B505460C4604E0EE
:1050B00014F8011B284600F067F820780028F7D183
:1050C00070BD000010B5024640F2131353430D4C5F
:1050D00004EB031141F214135B58C3F5807341F2E2
:1050E0000C040C44E05C41F214135B585B1E41F26B
:1050F0001414635023B94FF4807441F214135C50BC
:1051000010BD00004801002070B5054640F21310A4
:1051100068431C4901EB001441F2080000590119D1
:1051200041F228100059C1604FF48050015941F2FA
:1051300008000059814211D94FF48050015941F2C1
:1051400008000059091A41F22810005941604FF433
:105150008050015941F2080001510CE041F2080071
:105160000059C0F5805141F22810005941600021DA
:1051700041F20800015141F2281108590121FDF7BF
:10518000BFFD70BD4801002070B506460D4640F2D7
:10519000131070430D4901EB00144FF48050005977
:1051A00025544FF48050005B401CC0F30B014FF4BA
:1051B0008050015141F228100059006800F00100B0
:1051C00010B93046FFF7A0FF70BD00004801002075
:1051D00006480749486000BF0846064908600021A4
:1051E000044A1171518100BF70470000680000201F
:1051F0006C000020D83400202DE9F047CCB069E0E5
:10520000424C4FF000086079172823D0192822D08B
:10521000492848D194F80021A11D44A8FBF7C9FAF8
:105220000DF588793A4F03A83A493B49039103A900
:105230004846FEF754FB03AE4FF0010A96F8000112
:10524000CDE9000A7279B179F31D3846FEF700FE08
:1052500000BF3DE000BF21463048FEF7DAFB804644
:10526000B8F1000F19D12D484169499181694A91DE
:10527000C0694B902AA10220FFF716FF002505E028
:1052800049A8415D0220FFF77FFF6D1C0C2DF7DB65
:105290000A210220FFF778FF04E041461B480C3842
:1052A000FEF77EFC14E01FA0FFF71EFE6079FFF7FB
:1052B000DBFE002504E0A11D485DFFF7D5FE6D1C57
:1052C00094F80001A842F6DC0A20FFF7CDFE00BFEB
:1052D00000BF00BF0D4C0C3C0BE020680268516819
:1052E0008847064631462046FEF75EFC08B101209D
:1052F00006E020680268116888470028EDD100BFE9
:1053000000287FF47DAF4CB0BDE8F087E434002086
:1053100068360020745E0008185E0008E83500203A
:105320003A000000756E70617273656420636F6D82
:105330006D616E643A00000006480749486000BF8E
:105340000846064908600021044A1171518100BFD6
:1053500070470000740000207800002068360020AC
:1053600070B50CE0124C607910B1012805D103E052
:105370002046FEF7A9F900E000BF00BF00BF0C4CBB
:105380000C3C0BE0206802685168884705462946B6
:105390002046FEF7FDFC08B1012006E02068026807
:1053A000116888470028EDD100BF0028DAD170BD10
:1053B0007436002010B500290AD00878002807D0DC
:1053C00005487844FCF7ACFF002801D0002010BD50
:1053D0000248784410BD0000960B00008E0B0000C0
:1053E00010B500290AD00878002807D0054878446D
:1053F000FCF796FF002801D0002010BD0248784439
:1054000010BD0000860B00007E0B000021F0004262
:10541000A2F16052B2F5801F01F0004328BFD2F123
:105420007F6C0BD95FEA001C43EAC20242EB50706A
:1054300018BF704728BF20F001007047B2F5801FE9
:10544000BCBF184670474FEA410C1CF5001F02D242
:10545000084600F060BB70B500F096F800000089C7
:10546000FFF7F6BF4FF00040A0F580007047000046
:1054700002494FF0000000F088BB00BF0000F87F39
:10548000491058BFC1F140415B1058BFC3F14043C0
:105490008B42EFF30080704751EA030C17D41CF5E0
:1054A000801F58BFBCF5801F00F10680994218BFCD
:1054B000704708BF9042704707D711F5801F58BF4B
:1054C00013F5801F19D499427047894270471CF523
:1054D000801F08D5BCF5801FF7D58B4218BF7047D9
:1054E00008BF824270474FF4001C1CEB410F38BFCD
:1054F0001CEB430F01D28B42704770B500F044F8AB
:10550000922449004FF000514FF08053FFF7B8BF8D
:1055100051EA030C17D41CF5801F58BFBCF5801F3F
:1055200000F10680994218BF704708BF904270474B
:1055300007D711F5801F58BF13F5801F19D4994262
:105540007047894270471CF5801F08D5BCF5801F45
:10555000F7D58B4218BF704708BF824270474FF49F
:10556000001C1CEB410F38BF1CEB430F01D28B42D8
:10557000704770B500F008F8922449004FF00051D0
:105580004FF08053FFF77CBF0EF1020E2EF0030E9A
:105590005EF8046B364205D4012A43EB030515F58A
:1055A000001F12D8012841EB010C1CF5001F0CD87C
:1055B0000ED14FEAD17C15F5001F0CEB4C0C0CF111
:1055C000020C08BF4CEBD37C04E04FF0080C01E068
:1055D0004FEAD37C0CEB4C0526FA05F606F00706DD
:1055E000B6F1040C06D20EEB860CBDE870404CF010
:1055F000010C6047DFE80CF0090B02024FF000419C
:105600004FF00000A1F5002170BD19461046012899
:1056100051EB010418BFD4F5001484BF002001F041
:10562000004170BD0808A0F500114FEA3101704734
:1056300053EA010C17D41CF5801F58BFBCF5801F1E
:1056400000F106808B4218BF704708BF8242704746
:1056500007D713F5801F58BF11F5801F19D48B424F
:1056600070479B4270471CF5801F08D5BCF5801F12
:10567000F7D5994218BF704708BF904270474FF462
:10568000001C1CEB430F38BF1CEB410F01D29942A9
:1056900070470FB40CBC03BCFFF76BBF43004FEA6D
:1056A000D30C4FEA3C0C43401FBF40070CF1605144
:1056B00013F0FE4F70471CF0006F03D100200CF078
:1056C000004170470CF0004343EA507010B540EAC7
:1056D000CC0000F0DAF900BF000000924FEA0001B0
:1056E000FFF7A0BF4FF000414FF00000A1F50021EF
:1056F0007047401058BFC0F14040491058BFC1F139
:1057000040418142EFF30080704700004FF47F0C6E
:105710001CEAD0121EBF1CEAD11392EA0C0F93EAC6
:105720000C0F00F0858090EA010F48BF42F48072B0
:1057300040F4000C41F400002CF07F4120F07F4049
:1057400000B58142A2EB03020FF2081CACEB504EF5
:10575000C0F100009EF800E04FEA4E0E00FB0EFC88
:1057600038BF49004FEA2C1C02F5FA020CFB0EF37D
:105770004FEACE1E4FEA112C4FEAC1210EEB635EB9
:1057800042EB22420EFB0CFC4FEA1C5300FB0311C0
:105790004FEA112C4FEA01310EFB0CFC4FEADC4CB6
:1057A00000FB0C11C14228BF09184CEB03335DF814
:1057B00004EB10EB410143EBC250B2F57C0F38BF54
:1057C000704729D512F0F00F1CBF00F1C04000F067
:1057D00000407047008182838485868788898B8C0E
:1057E0008D8E8F919293959697999A9C9D9FA0A24A
:1057F000A3A5A7A8AAACAEB0B2B3B5B7B9BCBEC09A
:10580000C2C5C7C9CCCED1D4D7D9DCDFE2E6E9EC3A
:10581000F0F3F7FAFE0000004FEA400C0CF1807C38
:10582000BCF17E4F28BF7047B0F1C04000F073B9A3
:1058300090EA010F0CEAD11348BF42F4807262452E
:1058400038BF634507D213F47F0F16D080EA0100FA
:1058500000F00040704710B500F017F9097EFC3EDB
:1058600000F005B880EA010000F00040704780EACF
:10587000010000F0004000F04EB912F47F0F04BFA9
:105880000248704780EA010000F045B90000C07F7F
:1058900041000B0ED3F19E0208D950F400034FEAE9
:1058A000032323FA02F048BF4042704710B500F0CE
:1058B000ECF800BF49922480002070476FF000424E
:1058C00082EA20007047000010F0004148BF4042CB
:1058D000B0FA80F310FA03F2C3F19D030BD051EA42
:1058E000C35101EB1220530638BF704700F101008D
:1058F00008BF20F001007047B0FA80F310FA03F2FD
:10590000C3F19D030AD0D90501EB1220530638BF1D
:10591000704700F1010008BF20F00100704700004F
:1059200050EA010C00F113801CF5000F58BFBCF5C4
:10593000000F01D48842704707D710F5000F58BFF9
:1059400011F5000F15D488427047894270471CF545
:10595000000F04D5BCF5000FF7D5814270474FF01A
:10596000807C1CEB400F38BF1CEB410F01D2814201
:10597000704710B500F089F8922449004FF00050AC
:105980004FF08051FFF7B5BE4FF47F0C1CEAD012E8
:105990001EBF1CEAD11392EA0C0F93EA0C0F00F021
:1059A000478090EA010F48BF42F480724FF0004CEC
:1059B0004CEA00204CEA012102EB0302A0FB011398
:1059C000A2F50002002918BF43F001035B0028BFC5
:1059D0004FEA330342EB22425FEA132C4CEBC250F6
:1059E0002EBFBCEB436FB2F57C0F70474FEA036CE0
:1059F000BCF1004F08BF20F00100B2F57C0F38BFAA
:105A000070470BD582F0FF0212F5803FC8BF704788
:105A100000F1C040D8BF00F00040704700F5000C16
:105A20005FEA4C0C48BF7047B0F1C04000F073B85B
:105A300090EA010F0CEAD11348BF42F4807262452C
:105A400038BF634504D280EA010000F0004070478F
:105A500010B500F01AF800BF8900013E00F007B849
:105A600000F009B85FEA410C5FEA1C6C08D080EADC
:105A7000010000F050B85FEA400C5FEA1C6CF6D100
:105A80004FF00040A0F5800070470EF1020E2EF09E
:105A9000030E5EF8044B244204D44FEA4102B2F1F3
:105AA0007F4F11D84FEA4003B3F17F4F0CD80ED18E
:105AB0004FEAD07CB2F17F4F0CEB4C0C0CF1020C96
:105AC00008BF4CEBD17C04E04FF0080C01E04FEA3A
:105AD000D17C0CEB4C0324FA03F404F00704B4F17A
